:020000040800F2
:100000008004002001010008970F0008B30C0008CD
:10001000950F0008810100083B1100080000000056
:10002000000000000000000000000000CD100008EB
:100030009B01000800000000990F0008E71000086D
:100040001B0100081B0100081B0100081B01000820
:100050001B0100081B0100081B0100081B01000810
:100060001B0100081B0100081B0100081B01000800
:100070001B0100081B0100081B0100081B010008F0
:100080001B0100081B0100081B0100081B010008E0
:100090001B0100081B0100081B0100081B010008D0
:1000A0001B0100081B0100081B0100081B010008C0
:1000B0001B0100081B0100081B0100081B010008B0
:1000C0001B0100081B0100081B0100081B010008A0
:1000D0001B0100081B0100081B0100081B01000890
:1000E0001B0100081B0100081B010008DFF80CD0F1
:1000F00000F02AF800480047B111000880040020F1
:100100000648804706480047FEE7FEE7FEE7FEE7B1
:10011000FEE7FEE7FEE7FEE7FEE7FEE7391100082F
:10012000ED000008D2B201E000F8012B491EFBD21D
:1001300070470022F6E710B513460A4604461946F2
:10014000FFF7F0FF204610BD064C074D06E0E068C3
:1001500040F0010394E8070098471034AC42F6D30E
:10016000FFF7C8FF84120008A412000810B514207D
:1001700000F024FF0321BDE81040142000F0A7BFC9
:10018000FEE770B50C46054600F018FF20EA0401B2
:100190002846BDE8704000F0D1BF704770B50446F6
:1001A00000F004F90546601C02D0044800780444BD
:1001B00000F0FCF8401BA042FAD370BD08000020FC
:1001C0002DE9F84FDFF8B891002409F1040A0AF18B
:1001D000040B23460F270BF1040EC9E00125A540AF
:1001E0002A40AA427DD1674ED1F804C0ACEB060884
:1001F000B44532D014DCBCF1030F3AD009DCBCF1B9
:10020000000F2AD0BCF1010F1CD0BCF1020F31D17C
:100210001DE0BCF1110F17D0BCF1120F2AD119E06B
:10022000B8F5881F19D006DCB8F5803F15D0B8F5B1
:10023000801F1FD111E0B8F5001F0ED0B8F5041FC4
:1002400018D10AE0CB6815E0CB681B1D12E0CB6823
:1002500008330FE0CB680C330CE08B682BB1012B1B
:100260004FF0080303D0456104E0042302E0056178
:1002700000E00023FF2A01D8064601E000F1040651
:100280004FEA840501D9A5F12005D6F8008007FAC8
:1002900005FC28EA0C0803FA05F548EA0508C6F843
:1002A00000804D68ED0062D5374DAE6946F001061D
:1002B000AE61AD6924F0030605F001050095334DEC
:1002C00006EB050CDCF80850A607360F07FA06F80F
:1002D00025EA0805DFF8B880404503D14FF0000853
:1002E00017E044E0DFF8AC80404502D14FF0010850
:1002F0000FE0DFF8A480404502D14FF0020808E08B
:10030000DFF89880404502D14FF0030801E04FF03C
:10031000040808FA06F848EA0508CCF808804D6891
:10032000D9F80060ED034D4601D5164300E0964331
:100330002E604D68DAF80060AD03554601D51643CE
:1003400000E096432E604D68DBF80060ED025D46EC
:1003500001D5164300E096432E604D68DEF800603C
:10036000AD02754601D5164300E096432E60641C2D
:100370000D682A46E5407FF431AFBDE8F88F0000F4
:100380000004014000001110001002400000014074
:1003900000080140000C0140001001400014014021
:1003A0000AB1016170470904FBE700000148806859
:1003B000704700000800002002488168027811445C
:1003C0008160704708000020074810B5016841F0BF
:1003D00010010160032000F067F8002000F006F82B
:1003E00000F024F8002010BD0020024070B50D4D33
:1003F00004464FF47A712878B1FBF0F00A49096895
:10040000B1FBF0F000F041FC48B9102C07D20022FB
:100410002146501E00F028F800206C6070BD0120BD
:1004200070BD000008000020140000200C4808B532
:10043000816941F001018161816901F0010100914F
:10044000C16941F08051C161C06900F080500090E5
:100450000448416821F0E06141F00071416008BD4D
:100460000010024000000140F0B40E4B1B680C4627
:10047000C3F30223C3F10705042D00D90425191D78
:10048000072901D2002300E0DB1E012606FA05F150
:10049000491E214099409E40761E16403143F0BCD3
:1004A00000F066BE0CED00E0064900F007020868A7
:1004B0004FF6FF03184040EA0220034A1043086049
:1004C000704700000CED00E00000FA052DE9F04750
:1004D0000F46050061D0434E306800F00700B84277
:1004E00009D2306820F0070038433060306800F0EF
:1004F0000700B84251D128683B4C810712D540070C
:1005000003D5606840F4E06060602878000703D598
:10051000606840F4605060606068A96820F0F00096
:10052000084360602878C00728D06868012810D088
:100530002168022810D0890700292EDA616821F08D
:10054000030101436160FFF731FF804641F28839C2
:100550000DE021688903EFE78901EDE7FFF726FF4A
:10056000A0EB0801494502D90320BDE8F087606887
:10057000696800F00C00B0EB810FEFD1306800F03B
:100580000700B8420BD9306820F0070038433060CC
:10059000306800F00700B84201D00120E5E7287874
:1005A000400705D56068E96820F4E06008436060B2
:1005B0002878000706D56068296920F4605040EA71
:1005C000C100606000F018F86168084AC1F30311C7
:1005D000515CC8400649086006480068FFF706FFFE
:1005E0000020C2E700200240001002407412000800
:1005F000140000200C00002012A185B00FC98DE866
:100600000F0014A0144A006804905168134801F0C8
:100610000C03042B10D0082B0ED1C1F38343C90364
:100620001DF803000AD5516804AAC1F34041515C8A
:100630000A4A5043B0FBF1F005B0704708494843FF
:10064000FAE7000002030405060708090A0B0C0D6F
:100650000E0F1010010200000010024000127A007C
:1006600000093D002DE9F84F040070D02078C04DFE
:10067000C00749D06868C0F38100012807D06868C6
:10068000C0F38100022809D16868C00306D5286834
:10069000800339D560680028E7D035E06068B0F5A0
:1006A000803F0BD010B1B0F5A02F11D0286820F4F6
:1006B00080302860286820F4802002E0286840F418
:1006C00080302860606890B1FFF770FE06460AE04F
:1006D000286840F480202860F0E700BFFFF766FE3E
:1006E000801B642873D828688003F7D50CE0FFF7D7
:1006F0005DFE064605E000BFFFF758FE801B64283C
:10070000F0D828688003F7D420789A4E80074FF0FD
:1007100001094FF0000839D5686810F00C0F07D0B8
:100720006868C0F38100022809D16868C00306D454
:100730002868800714D52069012808D110E02069B5
:10074000B0B1C6F80090FFF731FE074605E00AE1B8
:10075000FFF72CFEC01B0228C4D828688007F7D5F5
:100760002868616920F0F80040EAC10028600DE0C7
:10077000C6F80080FFF71AFE074604E0FFF716FEF2
:10078000C01B022823D828688007F7D420780007E8
:100790002CD57948A169D9B1C0F80090FFF706FEC1
:1007A000074604E0FFF702FEC01B02280FD8686A64
:1007B0008007F7D571484FF4FA510068B0FBF1F0AB
:1007C000009000BF0098411E0091FAD20EE080E038
:1007D000C0F80080FFF7EAFD074604E0FFF7E6FDFA
:1007E000C01B022875D8686A8007F7D420784007B4
:1007F00060D5E8690027C00008D4E86940F080505F
:10080000E861E869012700F0805000905C480168C9
:10081000C90513D40168834641F480710160FFF774
:10082000C5FD824606E000BFFFF7C0FDA0EB0A0051
:1008300064284ED8DBF80000C005F5D5E068012833
:100840000AD008B1052813D0286A20F001002862D8
:10085000286A20F0040002E0286A40F001002862C3
:10086000E06841F2883B98B1FFF7A0FD82460BE0BB
:10087000286A40F004002862EEE700BFFFF796FD0B
:10088000A0EB0A0159455AD8286A8007F6D50CE032
:10089000FFF78CFD824605E0FFF788FDA0EB0A011B
:1008A00059454CD8286A8007F6D41FB1E86920F072
:1008B0008050E861E06988B36968C1F38101022969
:1008C00044D00228C6F8608004D0FFF76FFD0446CC
:1008D00038E034E0FFF76AFD074604E0FFF766FD05
:1008E000C01B02282BD828688001F7D4206AB0F5F5
:1008F000803F05D16868A16820F400300843686033
:10090000D4E908010843696821F474110843686058
:10091000C6F86090FFF74AFD044606E025E000BFF8
:10092000FFF744FD001B022809D828688001F7D58D
:100930001BE000BFFFF73AFD001B022802D903208D
:10094000BDE8F88F28688001F4D40EE00128F7D0C4
:100950006868226A00F48031914204D1616A00F42F
:100960007010884201D00120EAE70020E8E700008B
:100970000010024000004242800442421400002065
:100980000070004070B5040009D0606A002540B1D5
:1009900025616561A56294F8510040B10CE0012029
:1009A00070BD6068B0F5827FF4D0E561F2E784F84D
:1009B0005050204600F040F8022084F85100206892
:1009C000016821F040010160A088218900F4827053
:1009D00001F404410843A18901F400610843217C2A
:1009E00001F002010843217D01F001010843218B40
:1009F00001F400710843217F01F03801084394F8A5
:100A0000201001F080010843218D01F400510843BA
:100A100021680860A069042101EA1040216848604B
:100A20002068C16921F40061C1616565012084F815
:100A30005100002070BD000030B585B00024009446
:100A400001940294039400681449884223D1144805
:100A5000816941F480518161816901F4805104917F
:100A6000816941F00401816180690E4D00F004004C
:100A70000490A0200090022001900320039069467A
:100A80002846FFF79DFB4020CDE900046946284633
:100A90000294FFF795FB05B030BD00000030014027
:100AA00000100240000801402DE9F84F044690F87C
:100AB000500000270A9E1D4692468B464FF00109C2
:100AC00001280ED0012084F85000FFF76FFC80460B
:100AD00094F85100616801280CD0B1F5827F07D1EC
:100AE00002E00220BDE8F88FA16809B9042801D00E
:100AF0000227C2E0BBF1000F27D0BAF1000F24D0CB
:100B00001DB394F85100042802D0052084F8510048
:100B100000206065C4F838A0E587A587C4F830B028
:100B2000E586A5862064606420680168490603D4D0
:100B3000016841F040010160E068B0F5006F606855
:100B400005D0E8B3012D46D07FE0012795E008B13C
:100B5000012D39D1206B21680088C860206B801C72
:100B60002063E08E401EE0862EE0206881688907C1
:100B70000FD5E18E69B1B9F1010F0AD1216B098856
:100B8000C160206B801C2063E08E401EE0864FF029
:100B9000000920688168C9070CD0E18F51B1C06895
:100BA000A16B0880A06B801CA063E08F401EE087D3
:100BB0004FF00109FFF7FAFBA0EB0800B04200E09C
:100BC00009E001D3701C50D1E08E0028CDD1E08F18
:100BD0000028CAD13FE0206B216800780873206BA1
:100BE000401C2063E08E401EE0862EE02068816875
:100BF00089070FD5E18E69B1B9F1010F0AD1216BD7
:100C000009780173206B401C2063E08E401EE08653
:100C10004FF0000920688168C9070CD0E18F51B1FD
:100C2000C068A16B0870A06B401CA063E08F401EE1
:100C3000E0874FF00109FFF7B9FBA0EB0800B042D5
:100C400002D3701C01D010E07EB1E08E0028CDD11F
:100C5000E08F0028CAD142463146204600F0CAF94A
:100C600028B101272020606507E0032705E0A06880
:100C700018B92068C16880680090012084F851008C
:100C8000002084F8500038462CE710B5401EB0F123
:100C9000807F01D3012010BD4FF0E02460610F215F
:100CA000601700F065FA0020A06107202061002095
:100CB00010BDFEE77CB50446002529460D2000F056
:100CC0003DFA932020702020607001A823460090F8
:100CD000022219460C2000F057F8010009D1225CCD
:100CE000401C5540C0B20428F9D3205CA84200D073
:100CF000022108467CBD000010B5012210211348D6
:100D0000FFF74EFB012211461148FFF749FB00F0A7
:100D100037F88D212A2000F011FA3E212B2000F017
:100D20000DFA1E212D2000F009FA00212C2000F0E0
:100D300005FA4021152000F001FA3D21112000F0B4
:100D4000FDF9BDE81040FFF711BA000000080140AE
:100D5000000C01407CB50C46054607210D2000F033
:100D6000EDF9257001A823460090012219460C20B8
:100D700000F00AF810B90199102900D002207CBDBA
:100D80000F21012000F0DAB92DE9FF5F00270225CD
:100D9000DDF838A016468B468146B8460C2805D0AB
:100DA000B9F10E0F05D11227102001E0772730206E
:100DB000804647F08001022000F0C0F98021042025
:100DC000FFF7DFF980210A2000F081F900210120DE
:100DD00000F0B4F9002405E01BF80410092000F02D
:100DE000ADF9641CB442F7D34946012000F0A6F9DE
:100DF000B9F10C0F03D180210D2000F068F94FF4F8
:100E0000FA66042000F0DAF80446761E04D0E00703
:100E100002D114EA080FF4D080210D20FFF7B1F9B8
:100E200036B1062000F0CAF810F01B0F04D00225DE
:100E300004B02846BDE8F09F00253C40E00700D004
:100E40000125B9F10C0FF3D10A2000F0B7F80446E0
:100E50000C2000F0B3F810F007004FEAC40101D0F5
:100E600008390144CAF8001024B1102C04D9102408
:100E7000002603E00124FBE7002605E0092000F03E
:100E80009DF803998855761CA642F7D3D0E7000059
:100E90002DE9F04385B000242C480094019402947D
:100EA0000394816941F010018161816901F01001B1
:100EB0000491816941F020018161816901F0200183
:100EC0000491816941F004018161816901F00401AB
:100ED0000491816941F00801816180691C4F00F033
:100EE00008004FF400550490002229463846FFF7C9
:100EF00057FADFF86080002210214046FFF750FAD1
:100F0000DFF85490002201214846FFF749FA009586
:100F1000022601250396CDE9015469463846FFF7BC
:100F20004FF91020CDE90005CDE90246694640465B
:100F3000FFF746F903960095CDE901546946484606
:100F4000FFF73EF905B0BDE8F08300000010024055
:100F50000010014000080140000C01400C480B4902
:100F60004FF4007201604FF4827141600021816092
:100F7000C1600161C0E905121022C0E90721416288
:100F800081620A21C162FFF7FDBC00000030014010
:100F900018000020FEE770477047000001B582B0DE
:100FA00064200090012301AA02A90348FFF77CFDF9
:100FB0009DF804000EBD00001800002070B50C4D17
:100FC0000446002210212846FFF7EAF97E2000EAB5
:100FD000440040F08000FFF7E1FF0020FFF7DEFF54
:100FE0000446012210212846FFF7DAF9204670BD99
:100FF0000008014038B50B460092044600228021CB
:1010000000F008F8002804D0606D40F02000606512
:10101000032038BD2DE9F8431E4691468846044614
:10102000089DFFF7C3F9401B351AFFF7BFF90746C4
:1010300025480068C0F3CB30684338E0701C37D0D7
:10104000FFF7B4F9C01BA84203D215B1009860B3F2
:101050002CE02068416821F0E00141606068B0F553
:10106000827F0BD1A068B0F5004F02D0B0F5806F41
:1010700004D12068016821F040010160A06AB0F548
:10108000005F09D12068016821F4005101602068E7
:10109000016841F400510160012084F851000020F2
:1010A00084F850000320BDE8F8830025401E00901E
:1010B0002068816838EA010004D000214945BDD18B
:1010C0000020F0E70121F9E714000020704770B517
:1010D0000C460546FFF772FF40EA04012846BDE8CA
:1010E000704000F02BB8FFF767B930B58FB02821FA
:1010F0006846FFF71EF814210AA8FFF71AF8012125
:101100000804CDE900100024029402250491CDE9E1
:1011100007504FF4E01009906846FFF7A3FA0F203C
:10112000CDE90A056802CDE90C4002210AA80E9417
:10113000FFF7CCF90FB030BD7047FEE770B50B4D2F
:101140000E460446002210212846FFF729F97E208A
:1011500000EA4400FFF722FF3046FFF71FFF284652
:10116000BDE8704001221021FFF71AB900080140C4
:101170000907090E002804DB00F1E02080F80014C4
:10118000704700F00F0000F1E02080F8141D704758
:1011900002E008C8121F08C1002AFAD17047704740
:1011A000002001E001C1121F002AFBD1704700009E
:1011B000FFF70AF9FFF799FFFFF76AFEFFF7CEFE88
:1011C000FFF79AFD294E284DDFF8A48006F1580458
:1011D0004FF40057254926205831FFF7BBFD2870F2
:1011E00022485830FFF766FD2870B06DC5F8010041
:1011F00096F85C0068716420FEF7D0FF20787328B1
:1012000002D0C72813D01EE060785D281BD1A078DB
:101210004B2818D1E078162815D12079732812D1DF
:10122000002239464046FFF7BBF8642018E060789A
:10123000662808D1A078D12805D1E078D72802D136
:101240002079A72805D0012239464046FFF7A8F8A3
:10125000C0E7002239464046FFF7A2F84FF4FA6093
:10126000FEF79CFFB6E700000000002018000020F9
:101270000010014000000000000000000102030413
:1012800006070809A412000800000020180000004A
:1012900090110008BC12000818000020680400002B
:1012A000A011000800000000000000000100000084
:0C12B00010000000000000000024F4000A
:04000005080000ED02
:00000001FF
